:100000000C9436000C945E000C945E000C945E0020
:100010000C945E000C945E000C945E000C945E00E8
:100020000C945E000C945E000C945E000C945E00D8
:100030000C945E000C946B000C945E000C945E00BB
:100040000C948F0F0C945E000C94B7100C945E000F
:100050000C945E000C945E000C945E000C945E00A8
:100060000C94DF030C945E00EC028E0F11241FBE73
:10007000CFEFD4E0DEBFCDBF12E0A0E0B1E0E8ED0D
:10008000F0E302C005900D92AA36B107D9F713E04C
:10009000AAE6B2E001C01D92A733B107E1F710E074
:1000A000CCE6D0E004C02297FE010E945318C83667
:1000B000D107C9F70E94B70E0C946B180C9400007E
:1000C000DB010E945718802D99270895DB01042E2B
:1000D0000E945F1808951F920F920FB60F9211247D
:1000E0002F933F934F935F936F937F938F939F9340
:1000F000AF93BF93EF93FF93E0916E02F0916F0285
:100100000995FF91EF91BF91AF919F918F917F9151
:100110006F915F914F913F912F910F900FBE0F9074
:100120001F901895FC0180E180938100A3E0440FAB
:10013000551F661F771FAA95D1F7403080E05807FA
:1001400081E0680780E0780714F481E010C033E0B4
:1001500075956795579547953A95D1F7403080E06A
:10016000580781E0680780E078071CF482E082830A
:1001700039C023E075956795579547952A95D1F72E
:10018000403080E0580781E0680780E0780714F489
:1001900083E0EDCF92E075956795579547959A95D1
:1001A000D1F7403080E0580781E0680780E07807A9
:1001B00014F484E0DCCF82E07595679557954795F8
:1001C0008A95D1F7403080E0580781E0680780E0E9
:1001D000780714F485E0CBCF85E082834FEF5FEFA3
:1001E00060E070E051834083509387004093860025
:1001F00008951092800020E1209381000E949200D7
:1002000008951F93FC01162F9A0160817181882740
:100210009927442737FD4095542F0E94CE17BAE006
:100220009695879577956795BA95D1F7113011F026
:10023000193029F4709389006093880008C0123047
:1002400011F01A3021F470938B0060938A001F9193
:100250000895613011F0693031F4809180008F771A
:10026000809380000895623011F06A3029F4809103
:1002700080008F7D809380000895EFE6F0E080811C
:100280008E7F80830895CF93DF9310928500109224
:100290008400E1E8F0E02081EC018A81282B2083B2
:1002A000DF91CF910895E1E8F0E08081887F80833D
:1002B0000895CF92DF92FF920F931F93CF93DF9316
:1002C000EC01F62E6A01101611061206130624F42C
:1002D000B901A8010E94920081E0F81619F089E0A6
:1002E000F81629F4219A8091800080680AC082E083
:1002F000F81619F08AE0F81631F4229A80918000FD
:10030000806280938000A6016F2DCE010E940101C2
:100310001092850010928400809181009A81892B2F
:1003200080938100DF91CF911F910F91FF90DF901B
:10033000CF9008950F931F93CF93DF93EC018B0120
:10034000121613061406150624F4BA01A9010E9418
:1003500092001C830B8381E080936F00789410924D
:10036000850010928400809181009A81892B80936E
:100370008100DF91CF911F910F9108950895089505
:1003800081E0809379026093740210927702109258
:10039000780208958091730290917202891B9927C7
:1003A00008952091720280917302281710F080E066
:1003B0000AC0E0917002F0917102E20FF11D80819C
:1003C0002F5F2093720299270895AC0180917C02DF
:1003D00090917D02892B29F1909172028091730294
:1003E0009817F8F020E030E00AC0E0917002F09138
:1003F0007102EA0FFB1FA40FB51F8C918083822F1F
:100400002F5F3F4FA82FBB27A617B70774F3109293
:10041000720260937302E0917C02F0917D02CB0145
:1004200009950895E0917A02F0917B02309729F0C6
:1004300010927702109278020995089570937D02C8
:1004400060937C02089570937B0260937A02089512
:10045000CF93DF93CDB7DEB721970FB6F894DEBF09
:100460000FBECDBF6983809179028823A9F0809166
:1004700078028032B0F480917702E0917502F091B9
:100480007602E80FF11D6083809177028F5F809381
:1004900077028093780205C061E0CE0101960E9448
:1004A000640321960FB6F894DEBF0FBECDBFDF9177
:1004B000CF9108950E9428020895EF92FF920F9322
:1004C0001F93CF93DF937C01EB01042F809179027E
:1004D000882369F010E008C0FE01E10FF11D608182
:1004E000C7010E9428021F5F1017B1F704C0642FD4
:1004F000CE010E946403DF91CF911F910F91FF9075
:10050000EF900895FB0101900020E9F73197E61B79
:10051000F70B4E2F0E945D02089560917502709155
:10052000760221E040917802809174020E942C03AF
:1005300010927702109278021092790208951F9318
:10054000862F142F413208F010E2609170027091F2
:100550007102412F0E94FB021092720210937302EB
:100560001F9108950E949F02089561E070E080E26B
:1005700090E00E94D01190937102809370021092CB
:1005800072021092730261E070E080E290E00E94DB
:10059000D011909376028093750210927702109298
:1005A00078020E94AE0308950F931F938C01862F4B
:1005B0000E94F70282E192E00E94910385EE91E0B1
:1005C0000E948C03C8010E94B5021F910F910895EB
:1005D0000E94D40208950895089581E080937902DD
:1005E0006093740210927702109278020895880F37
:1005F0008093BA000895982F413218F081E090E07E
:10060000089580917F028823E1F781E080937F0243
:100610001092870240938802990F91609093800214
:1006200085EE8093BC0080917F028130E1F32091C0
:1006300085023091860290E00AC0E92FFF27DB0196
:10064000AE0FBF1FE20FF31F80818C939F5F941743
:10065000A1F780E090E008951F93182F942F413266
:1006600018F081E090E02EC080917F028823E1F7AE
:1006700082E080937F0210928702909388024091DB
:1006800085025091860230E00AC0E32FFF27DA018D
:10069000AE0FBF1FE60FF71F80818C933F5F3917A6
:1006A000A1F7812F9927880F991F8093800285EEEB
:1006B0008093BC00222321F080917F028230E1F3FD
:1006C00080E090E01F910895CF93DF93EC016132B9
:1006D00018F081E090E01DC080917F02843019F015
:1006E00082E090E016C060938C02409189025091A4
:1006F0008A0220E00AC0E22FFF27DA01AE0FBF1FF7
:10070000EC0FFD1F80818C932F5F2617A1F780E0EF
:1007100090E0DF91CF9108959093840280938302BB
:10072000089590938202809381020895882311F0A6
:1007300085EC01C085E88093BC00089585ED809329
:10074000BC008091BC0084FDFCCF10927F02089514
:1007500085EC8093BC0010927F02089510927F0276
:10076000449A459AE9EBF0E080818E7F8083808116
:100770008D7F808388E48093B80085E48093BC00FB
:1007800061E070E080E290E00E94D01190938602D8
:100790008093850261E070E080E290E00E94D011D9
:1007A00090938A028093890261E070E080E290E099
:1007B0000E94D01190938E0280938D0208951F9213
:1007C0000F920FB60F9211242F933F934F935F9385
:1007D0006F937F938F939F93AF93BF93EF93FF9309
:1007E0008091B9009927887F90708036910509F42F
:1007F000BDC081369105CCF58832910509F47BC0E6
:1008000089329105B4F48031910509F46FC08131CA
:1008100091053CF4009709F412C1089709F011C141
:1008200065C08831910509F466C0809709F009C157
:1008300006C18034910509F485C08134910544F4E2
:100840008033910509F4FBC0C89709F0FAC0F1C0E4
:100850008035910509F468C08835910509F477C0A1
:100860008834910509F0EDC0EAC08839910509F492
:10087000DEC089399105ECF48837910509F476C01A
:10088000893791054CF48836910509F46FC080379B
:10089000910509F0D6C06AC08838910509F4C7C02F
:1008A0008039910509F468C08038910509F0C9C004
:1008B00063C0803B910509F48DC0813B91054CF4E8
:1008C000803A910509F46CC0883A910509F0B9C0E5
:1008D00081C0803C910509F4ACC0883C910509F4C5
:1008E000A8C0883B910509F0ACC08CC08091800203
:1008F0008093BB0015C09091870280918802981761
:1009000008F09DC090918702E0918502F0918602E7
:10091000E90FF11D80818093BB009F5F9093870258
:1009200085EC8093BC008DC080918702E0918502A8
:10093000F0918602E80FF11D9091BB0090838F5FCC
:100940008093870290918702809188026DC0809188
:100950008702E0918502F0918602E80FF11D9091E7
:10096000BB0090838F5F8093870269C083E0809390
:100970007F0210928F02D4CF80918F02803208F0D4
:1009800056C090918F02E0918D02F0918E02E90F96
:10099000F11D8091BB0080839F5F90938F02C0CF39
:1009A00080918F02803248F480918F02E0918D0215
:1009B000F0918E02E80FF11D108260918F0277276F
:1009C000E0918302F091840280918D0290918E02D9
:1009D00009952FC084E080937F0210928B021092C1
:1009E0008C02E0918102F0918202099580918C0243
:1009F000882341F481E080938C02E0918902F09198
:100A00008A02108290918B02E0918902F0918A0211
:100A1000E90FF11D80818093BB009F5F90938B0253
:100A200090918B0280918C02981708F479CF85E819
:100A300078CF85EC8093BC0010927F0202C00E94A8
:100A40009E03FF91EF91BF91AF919F918F917F9105
:100A50006F915F914F913F912F910F900FBE0F902B
:100A60001F90189580915E02882319F180915C0295
:100A7000882361F08091900290919102A09192025E
:100A8000B09193020196A11DB11D0BC080919002FF
:100A900090919102A0919202B09193020197A109C5
:100AA000B1098093900290939102A0939202B09327
:100AB000930280915F02882359F180915D0288231F
:100AC000A1F08091940290919502A0919602B0912C
:100AD00097020196A11DB11D8093940290939502F7
:100AE000A0939602B09397020895809194029091FA
:100AF0009502A0919602B09197020197A109B109C0
:100B00008093940290939502A0939602B0939702DB
:100B100008950F931F930EE712E062E570E0C8019D
:100B20000E94ED0260E470E0C8010E945A0260E099
:100B300070E0C8010E945A02C8010E948D021F91F4
:100B40000F910895CF93DF93EC0180916202909111
:100B500063028430910571F18530910554F482303F
:100B60009105E1F08330910514F5019709F040C03B
:100B70000CC08630910521F186309105F4F0873064
:100B8000910509F10897A1F527C060E071E08AEAB4
:100B900092E00E946F0F65E071E026C060E071E0B6
:100BA0008AEA92E00E946F0F69E071E01DC06DE07B
:100BB00071E00BC06DE071E011C06AE171E005C049
:100BC0006AE171E00BC06FE171E08AEA92E00E9495
:100BD0006F0F62E171E008C06FE171E08AEA92E0B4
:100BE0000E946F0F66E171E08AEA92E00E946F0F47
:100BF00062E370E080E090E00E94CC0F64E271E07C
:100C00008AEA92E00E946F0FC430D105F1F1C5303D
:100C1000D1055CF4C230D10501F1C330D10594F5A2
:100C2000C130D10509F073C00FC0C630D105C9F17C
:100C3000C630D1056CF1C730D10509F447C0C830C2
:100C4000D10509F064C04BC060E071E08AEA92E02F
:100C50000E946F0F65E071E008C060E071E08AEA11
:100C600092E00E946F0F69E071E08AEA92E00E94D0
:100C70006F0F62E370E080E090E00E94CC0F66E2CC
:100C800071E041C06DE071E005C06DE071E00BC046
:100C90006AE171E08AEA92E00E946F0F62E171E01E
:100CA00008C06AE171E08AEA92E00E946F0F66E193
:100CB00071E08AEA92E00E946F0F62E370E080E0E8
:100CC00090E00E94CC0F69E271E01DC06FE171E01D
:100CD0008AEA92E00E946F0F62E171E008C06FE162
:100CE00071E08AEA92E00E946F0F66E171E08AEAA1
:100CF00092E00E946F0F62E370E080E090E00E945B
:100D0000CC0F6CE271E08AEA92E00E946F0F62E31E
:100D100070E080E090E00E94CC0FD0936302C0931B
:100D20006202DF91CF9108952091620230916302B7
:100D30008091A6029091A7024FEF8F3F940719F080
:100D4000019779F405C020FD0CC02150304009C046
:100D5000C90162E070E00E94ED17019711F42F5F66
:100D60003F4FC9010E94A2050895809162029091AF
:100D700063022091A4023091A5024FEF2F3F340768
:100D800021F02130310551F405C08330910534F054
:100D9000029704C0873091050CF402960E94A205C8
:100DA00008950F931F938C016DE071E08AEA92E041
:100DB0000E946F0F0130110549F465E071E08AEA85
:100DC00092E00E946F0F8091A00208C069E071E07C
:100DD0008AEA92E00E946F0F8091A102882319F0A5
:100DE0006FE271E002C062E371E08AEA92E00E9481
:100DF0006F0F62E370E080E090E00E94CC0F1F91E3
:100E00000F91089565E371E08AEA92E00E946F0F06
:100E100062E171E08AEA92E00E946F0F62E370E0A3
:100E200080E090E00E94CC0F80916002882319F04E
:100E30006AE371E002C06EE471E08AEA92E00E9427
:100E40006F0F62E370E080E090E00E94CC0F81E0E1
:100E500090E00E94D10664E271E08AEA92E00E948A
:100E60006F0F62E370E080E090E00E94CC0F809111
:100E70005C02882319F062E671E002C065E671E069
:100E80008AEA92E00E946F0F62E370E080E090E0F7
:100E90000E94CC0F65E371E08AEA92E00E946F0F36
:100EA00066E171E08AEA92E00E946F0F62E370E00F
:100EB00080E090E00E94CC0F80916102882319F0BD
:100EC00068E671E002C06CE771E08AEA92E00E9495
:100ED0006F0F62E370E080E090E00E94CC0F82E050
:100EE00090E00E94D10664E271E08AEA92E00E94FA
:100EF0006F0F62E370E080E090E00E94CC0F809181
:100F00005D02882319F062E671E002C065E671E0D7
:100F10008AEA92E00E946F0F62E370E080E090E066
:100F20000E94CC0F08950F931F930AEA12E060E924
:100F300071E0C8010E946F0F64E670E080E090E00D
:100F40000E94CC0F64EA71E0C8010E946F0F68EC48
:100F500070E080E090E00E94CC0F68EB71E0C80187
:100F60000E946F0F68EC70E080E090E00E94CC0F70
:100F70006CEC71E0C8010E946F0F64E670E080E0E5
:100F800090E00E94CC0F60EE71E0C8010E946F0FEC
:100F900064E670E080E090E00E94CC0F64EF71E0C6
:100FA000C8010E946F0F64E670E080E090E00E944C
:100FB000CC0F68E072E0C8010E946F0F64E670E039
:100FC00080E090E00E94CC0F1F910F9108958091D6
:100FD000A202882309F4DAC0809162029091630230
:100FE0008430910509F44EC08530910554F4823067
:100FF000910551F183309105D4F5019709F0C6C0F0
:1010000010C08630910509F453C0863091050CF468
:1010100046C08730910509F45CC0089709F0B6C056
:1010200087C0109290021092910210929202109238
:1010300093020E94B40F6093980270939902809378
:101040009A0290939B020895109294021092950236
:1010500010929602109297020E94B40F60939C0225
:1010600070939D0280939E0290939F02089590E05A
:101070008091A002882309F491E09093A00281E07E
:1010800090E00AC090E08091A102882309F491E0E9
:101090009093A10282E090E00E94D106089590E032
:1010A00080915C02882309F491E090935C0208C06F
:1010B00090E080915D02882309F491E090935D02B5
:1010C0000E94020780916202909163020E94A20531
:1010D000089590E080916002882309F491E0909354
:1010E00060020E94020780916202909163020E9456
:1010F000A2056BE072E08AEA92E00E946F0F65E061
:1011000071E08AEA92E00E946F0F62E370E080E093
:1011100090E00E94CC0F64E271E08AEA92E00E94C3
:101120006F0F62E370E080E090E00E94CC0F0895C2
:1011300090E080916102882309F491E0909361022C
:101140000E94020780916202909163020E94A205B0
:101150006BE072E08AEA92E00E946F0F69E071E052
:101160008AEA92E00E946F0F62E370E080E090E014
:101170000E94CC0F64E271E08AEA92E00E946F0F55
:1011800062E370E080E090E00E94CC0F08950F933E
:101190001F93CF93DF93CDB7DEB726970FB6F894A2
:1011A000DEBF0FBECDBF46E050E062E570E08EE7E7
:1011B00092E00E94B2028E010F5F1F4F0AC08EE7BD
:1011C00092E00E94D10197E19827995EF8019193EE
:1011D0008F018EE792E00E94CA01882381F7CE0139
:1011E0000196081B190B053011050CF48AC0898182
:1011F000282F33278A81082F11272832310564F4DC
:1012000020E08091A4029091A5028F5F9F4F09F08A
:1012100021E08FEF9FEF13C0283D31055CF020E007
:101220008091A4029091A502019709F021E081E04C
:1012300090E005C01092A5021092A40208C09093FD
:10124000A5028093A402222311F00E94B506083261
:1012500011055CF420E08091A6029091A70201970D
:1012600009F021E081E090E014C0033D110564F035
:1012700020E08091A6029091A7028F5F9F4F09F016
:1012800021E08FEF9FEF05C01092A7021092A602F7
:1012900008C09093A7028093A602222311F00E9417
:1012A00094061E818091A20210FF06C0811181E088
:1012B000982F1092A20207C090E0813009F091E0CF
:1012C00081E08093A202992311F00E94E707812F09
:1012D000869580FF03C01092A30203C081E0809333
:1012E000A30262E570E08EE792E00E94ED0260E00A
:1012F00070E08EE792E00E945A028EE792E00E9430
:101300008D0226960FB6F894DEBF0FBECDBFDF91DB
:10131000CF911F910F910895AF92BF92CF92DF921C
:10132000EF92FF921F93CF93DF9360E172E08AEA1E
:1013300092E00E946F0F62E370E080E090E00E9414
:10134000CC0F64E172E08AEA92E00E946F0F62E3E0
:1013500070E080E090E00E94CC0F68E072E08AEAE2
:1013600092E00E946F0F62E370E080E090E00E94E4
:10137000CC0F60E070E08AE692E00E946000A82E48
:10138000BB2461E070E08AE692E00E946000C82E13
:10139000DD2462E070E08AE692E00E946000C82FDF
:1013A000DD2763E070E08AE692E00E946000E82EAC
:1013B000FF242AE0A216B10414F0AA24BB243AE0C8
:1013C000C316D10414F0CC24DD24CA30D10514F0A6
:1013D000C0E0D0E08AE0E816F10414F0EE24FF2427
:1013E0000E94C7081091A30268E072E08AEA92E0C6
:1013F0000E946F0F68E172E08AEA92E00E946F0F2C
:1014000062E272E08AEA92E00E946F0F6CE272E0A0
:101410008AEA92E00E946F0F66E372E08AEA92E045
:101420000E946F0F1123E1F2CE0133E0880F991F64
:101430003A95E1F7CC0FDD1FC80FD91F84E690E085
:101440009C01C29EC001C39E900DD29E900D11249E
:10145000C80FD91F88EE93E09C01A29EC001A39EF5
:10146000900DB29E900D11248E0D9F1DC80FD91F97
:10147000D0935B02C0935A0260E472E08AEA92E081
:101480000E946F0F64E472E08AEA92E00E946F0F9C
:10149000DF91CF911F91FF90EF90DF90CF90BF90A1
:1014A000AF9008950F931F938EE792E00E94B502CC
:1014B0000E94890540E855E260E070E08AEA92E027
:1014C0000E94880F0E9493070E9402070BE612E019
:1014D00040E452E46FE070E0C8010E94F90020E4AB
:1014E0003FE140E050E062E375E0C8010E949A01EC
:1014F00062E370E080E090E00E94CC0F1F910F91BA
:1015000008952F923F924F925F926F927F928F92A7
:101510009F92AF92BF92CF92DF92EF92FF920F9382
:101520001F93CF93DF93CDB7DEB72D970FB6F89407
:10153000DEBF0FBECDBF2C013A014B0119011A8746
:101540000987EB8620E030E040E050E0C401B301C1
:101550000E94161788232CF460E070E080E09FEB77
:1015600004C060E070E080E09FE300E010E008C0AD
:1015700020E030E040E251E40E94A9160F5F1F4FC7
:1015800002151305ACF39B01AC01C401B3010E9429
:1015900067165B016C0120E030E040E050E0C401E0
:1015A000B3010E941617882324F4D7FAD094D7F8F1
:1015B000D0942DEC3CEC4CEC5DE32D833E834F83CB
:1015C00058871C821B820AC0ED82FE820F83188717
:1015D0004B815C814F5F5F4F5C834B8320E030E049
:1015E00040E251E46D817E818F8198850E9486174B
:1015F0007B018C01A60195010E941617181624F78D
:101600008B819C81181619061CF002E010E004C0C2
:101610000B811C810F5F1F4F20E030E040E050E065
:10162000C401B3010E941617882314F40F5F1F4FE3
:101630000894211C311CC801820D931D08942108B7
:10164000310809851A850F5F1F4F801791072CF00D
:101650001D861C861A8219821DC0081B190B1A834D
:10166000098310161106A4F49B85992309F0EAC09A
:101670000FC0F201E20FF31F80E280832F5F3F4F24
:10168000A981BA812A173B07A1F73D872C8702C0A1
:101690001D861C8620E030E040E050E0C401B3012C
:1016A0000E94161788235CF4EC85FD85E40DF51D7A
:1016B0008DE28083EC85FD853196FD87EC872B815B
:1016C0003C81232B61F4EC85FD85E40DF51D80E361
:1016D00080834C855D854F5F5F4F5D874C878C8431
:1016E0009D84840C951C6624772441C02D813E8105
:1016F0004F815885C601B5010E94A9160E94EF16B8
:10170000DC01CB017C01EC85FD853196FD87EC8702
:101710004AE050E0B4010E94EC120027F7FC00956B
:10172000102FC801B7010E940C172D813E814F81F7
:1017300058850E9486179B01AC01C601B5010E9425
:1017400066165B016C0120E030E040E251E46D81FF
:101750007E818F8198850E94A9166D837E838F83F9
:1017600098870894611C711C0894811C911C2B8122
:101770003C81621673060CF4B9CF1214130464F49E
:10178000EC85FD85E40DF51D8EE280834C855D853D
:101790004F5F5F4F5D874C878C849D84840C951CC4
:1017A000662477242FC020E030E040E251E4C601F7
:1017B000B5010E9486175B016C010E94EF16DC01E7
:1017C000CB017C01EC85FD853196FD87EC874AE0F5
:1017D00050E0B4010E94EC120027F7FC0095102F96
:1017E000C801B7010E940C179B01AC01C601B501ED
:1017F0000E9466165B016C010894611C711C0894C0
:10180000811C911C6214730474F229813A811216AE
:101810001306DCF43B853323C1F4AC85BD85A40DF0
:10182000B51D80E090E020E22D93019649815A8118
:1018300084179507C9F78C859D85840F951F9D8713
:101840008C8703C020E030E014CFAC85BD85A40DAB
:10185000B51D1C92C2012D960FB6F894DEBF0FBEC7
:10186000CDBFDF91CF911F910F91FF90EF90DF904F
:10187000CF90BF90AF909F908F907F906F905F9030
:101880004F903F902F9008952F923F924F925F92EA
:101890006F927F928F929F92AF92BF92CF92DF9280
:1018A000EF92FF920F931F93CF93DF93CDB7DEB7E5
:1018B0006E970FB6F894DEBF0FBECDBF6091900259
:1018C00070919102809192029091930220915A021C
:1018D00030915B0279010027F7FC0095102FA801D9
:1018E00097010E94CE170E940C1720E034E244E7D3
:1018F00059E40E94A9163B014C018091A002882363
:1019000051F02FE232E14FE15FE3C401B3010E94E5
:1019100086173B014C016091940270919502809171
:10192000960290919702A80197010E94CE170E94FB
:101930000C1720E034E244E759E40E94A9161B0189
:101940002C018091A102882351F02FE232E14FE176
:101950005FE3C201B1010E9486171B012C0165E300
:1019600071E08AEA92E00E946F0F65E071E08AEA16
:1019700092E00E946F0F62E370E080E090E00E94CE
:10198000CC0FEE2400E010E022E030E0B401A3012F
:10199000CE010F960E94810ABC018AEA92E00E9461
:1019A0006F0F62E370E080E090E00E94CC0F65E38F
:1019B00071E08AEA92E00E946F0F69E071E08AEAC2
:1019C00092E00E946F0F62E370E080E090E00E947E
:1019D000CC0F22E030E0B201A101CE0101960E94BD
:1019E000810ABC018AEA92E00E946F0F62E370E014
:1019F00080E090E00E94CC0F0E94B40F7B018C012C
:101A00008091980290919902A0919A02B0919B02C4
:101A1000E81AF90A0A0B1B0B0E94B40F5B016C0158
:101A200080919C0290919D02A0919E02B0919F0294
:101A3000A81AB90ACA0ADB0A80916002882309F44D
:101A40005BC0C801B70120E63AEE40E050E00E94DA
:101A5000001828EE33E040E050E00E9400183F9369
:101A60002F93C801B70120E83EEE46E350E00E9404
:101A7000001820E63AEE40E050E00E9400183F9344
:101A80002F93C801B70120E83EEE46E350E00E94E4
:101A900000183F932F9387E492E09F938F938E01DA
:101AA0000A5E1F4F1F930F930E940D136BE072E0AD
:101AB0008AEA92E00E946F0F65E071E08AEA92E0A4
:101AC0000E946F0F62E370E080E090E00E94CC0F14
:101AD000B8018AEA92E00E946F0F62E370E080E052
:101AE00090E00E94CC0F8DB79EB70A960FB6F8947F
:101AF0009EBF0FBE8DBF4FC065E572E08AEA92E0DF
:101B00000E946F0F65E071E08AEA92E00E946F0F19
:101B100062E370E080E090E00E94CC0F17FD05C00A
:101B2000C801B7010E940C1714C0C801B701617049
:101B300070708070907016950795F794E7946E29F1
:101B40007F29802B912B0E940C179B01AC010E94D6
:101B5000671620E03AEB4BE55AE40E94A9169B0178
:101B6000AC01C401B3010E94A916AB01BC01EE2473
:101B700000E010E022E030E0CE0108960E94810AE9
:101B8000BC018AEA92E00E946F0F62E370E080E09D
:101B900090E00E94CC0F80916102882309F45BC021
:101BA000C601B50120E63AEE40E050E00E94001880
:101BB00028EE33E040E050E00E9400183F932F935E
:101BC000C601B50120E83EEE46E350E00E94001851
:101BD00020E63AEE40E050E00E9400183F932F9339
:101BE000C601B50120E83EEE46E350E00E94001831
:101BF0003F932F9387E492E09F938F938E010A5E29
:101C00001F4F1F930F930E940D136BE072E08AEA3F
:101C100092E00E946F0F69E071E08AEA92E00E9410
:101C20006F0F62E370E080E090E00E94CC0FB8019B
:101C30008AEA92E00E946F0F62E370E080E090E039
:101C40000E94CC0F8DB79EB70A960FB6F8949EBF30
:101C50000FBE8DBF4FC065E572E08AEA92E00E9438
:101C60006F0F69E071E08AEA92E00E946F0F62E311
:101C700070E080E090E00E94CC0FD7FC05C0C60168
:101C8000B5010E940C1714C0C601B50161707070D7
:101C900080709070D694C794B794A7946A297B29D2
:101CA0008C299D290E940C179B01AC010E9467168C
:101CB00020E03AEB4BE55AE40E94A9169B01AC01E7
:101CC000C201B1010E94A916AB01BC01EE2400E0E3
:101CD00010E022E030E0CE0108960E94810ABC01AB
:101CE0008AEA92E00E946F0F62E370E080E090E089
:101CF0000E94CC0F6E960FB6F894DEBF0FBECDBF1C
:101D0000DF91CF911F910F91FF90EF90DF90CF90D7
:101D1000BF90AF909F908F907F906F905F904F900B
:101D20003F902F9008950E94C7088091A80290913B
:101D3000A90201969093A9028093A8026AE070E03C
:101D40000E94ED17892B61F40E94440C1092A902A5
:101D50001092A80264E670E080E090E00E94CC0F50
:101D60006AE070E080E090E00E94CC0F08950E944D
:101D7000FB0F0E94520A0E94930EFDCF0895089512
:101D8000CB01BA013327442755270E94FD1008953F
:101D90002AE00E94C00E0895AB01662777270E94B3
:101DA000C80E0895862F0E94F5100895862F0E9470
:101DB000F51008950F931F938C016DE00E94D60ECD
:101DC0006AE0C8010E94D60E1F910F9108950F93EB
:101DD0001F938C010E94C80EC8010E94DA0E1F9149
:101DE0000F9108950F931F938C010E94CC0EC80190
:101DF0000E94DA0E1F910F9108950F931F938C018B
:101E00000E94D20EC8010E94DA0E1F910F91089510
:101E10000F931F938C010E94D60EC8010E94DA0E08
:101E20001F910F910895EF92FF920F931F93CF93FD
:101E3000DF93EC017A018B0177FF0BC06DE20E940A
:101E4000D60E10950095F094E094E11CF11C011D54
:101E5000111D2AE0B801A701CE010E94C00EDF913A
:101E6000CF911F910F91FF90EF9008950F931F93C3
:101E70008C010E94130FC8010E94DA0E1F910F916E
:101E800008952115310521F4642F0E94D60E08957E
:101E90002A30310519F40E94130F08950E94C00ED4
:101EA00008950F931F938C010E94410FC8010E9457
:101EB000DA0E1F910F910895AB01662757FD6095CB
:101EC000762F0E94130F08950F931F938C010E9489
:101ED0005C0FC8010E94DA0E1F910F910895CB018B
:101EE0000E94C31108950F931F938C010E946F0FDE
:101EF000C8010E94DA0E1F910F9108950E94AE1042
:101F000008950E948F1008950E947E1099270895C9
:101F1000CB01BA010E943D100895089508951F92C3
:101F20000F920FB60F9211248F939F93AF93BF938D
:101F30008091AF029091B002A091B102B091B20233
:101F40000196A11DB11D8093AF029093B002A093A2
:101F5000B102B093B202BF91AF919F918F910F9058
:101F60000FBE0F901F9018956091AF027091B00254
:101F70008091B1029091B20227E0660F771F881F0F
:101F8000991F2A95D1F72DE730E040E050E00E94FC
:101F90000018CA01B9010895AF92BF92CF92DF92A3
:101FA000EF92FF920F931F935B016C010E94B40F9D
:101FB0007B018C010E94B40F6E197F09800B910B7D
:101FC0006A157B058C059D05A8F31F910F91FF9065
:101FD000EF90DF90CF90BF90AF900895019751F0B0
:101FE000880F991F880F991F02972FB7F8940197B0
:101FF000F1F72FBF089578941092AF021092B002BB
:102000001092B1021092B20284B5826084BD84B590
:10201000816084BD85B5826085BD85B5816085BDE3
:10202000EEE6F0E0808181608083E1E8F0E080818D
:1020300082608083808181608083E0E8F0E080813D
:1020400081608083E1EBF0E0808184608083E0EB5D
:10205000F0E0808181608083EAE7F0E08081846045
:1020600080838081826080838081816080838081A1
:10207000806880831092C1000895EF92FF920F93C1
:102080001F937B018C0122E030E040E050E00E9491
:102090002218205C3D4B404F5F4FCA01B901A80197
:1020A00097010E9422182150304040405040BB27E9
:1020B00057FDBA95A52F942F832F2F5F3F4F4F4F7A
:1020C0005F4F8093C50021502093C400E1ECF0E005
:1020D0008081806180838081886080838081806846
:1020E00080831F910F91FF90EF900895982F80911A
:1020F000C00085FFFCCF9093C60008958091AB028D
:102100009091AC022091AD023091AE02821B930BF4
:1021100080589F4F60E870E00E94ED17089540914D
:10212000AD025091AE028091AB029091AC02841747
:10213000950719F48FEF9FEF0895FA01ED54FD4FC5
:102140002081CA01019660E870E00E94ED1790932B
:10215000AE028093AD02822F992708958091AD023F
:102160009091AE029093AC028093AB0208951F92BF
:102170000F920FB60F9211242F933F934F935F93BB
:102180006F937F938F939F93AF93BF93EF93FF933F
:102190004091C600E091AB02F091AC02CF010196F4
:1021A00060E870E00E94ED179C018091AD02909173
:1021B000AE022817390739F0ED54FD4F40833093B4
:1021C000AC022093AB02FF91EF91BF91AF919F9131
:1021D0008F917F916F915F914F913F912F910F90D0
:1021E0000FBE0F901F9018950895982F8091C000F2
:1021F00085FFFCCF9093C60008952F923F924F9297
:102200005F926F927F928F929F92AF92BF92CF9286
:10221000DF92EF92FF920F931F93CF93DF93CDB78F
:10222000DEB7A0970FB6F894DEBF0FBECDBF6B012F
:102230007C0129013A01611571058105910541F47F
:102240008091C00085FFFCCF80E38093C60041C031
:102250008824992454011E010894211C311C8101F9
:10226000080D191DC701B601A30192010E940018B3
:10227000F80160830894811C911CA11CB11CC7014A
:10228000B601A30192010E94001869017A0121158B
:1022900031054105510519F79E012F5F3F4F14C0CD
:1022A000089481089108A108B108F901E80DF91D09
:1022B000E081EA3010F4E05D01C0E95C8091C0008B
:1022C00085FFFCCFE093C60081149104A104B10402
:1022D00039F7A0960FB6F894DEBF0FBECDBFDF91E1
:1022E000CF911F910F91FF90EF90DF90CF90BF9013
:1022F000AF909F908F907F906F905F904F903F90A6
:102300002F90089520E130E040E050E00E94FD1061
:10231000089528E030E040E050E00E94FD1008956C
:1023200022E030E040E050E00E94FD1008958091EE
:10233000C00085FFFCCF8AE08093C6000895EF922D
:10234000FF920F931F937B018C0197FF0FC0809129
:10235000C00085FFFCCF8DE28093C60010950095EC
:10236000F094E094E11CF11C011D111D2AE030E005
:1023700040E050E0C801B7010E94FD101F910F918D
:10238000FF90EF900895FC0107C08091C00085FF89
:10239000FCCF31969093C60090819923B1F70895B0
:1023A0000F931F93CF93DF93869F8001879F100D1C
:1023B000969F100D1124C8010E94EC11EC010097AA
:1023C00029F0A80160E070E00E94E512CE01DF91E3
:1023D000CF911F910F910895CF93DF93AC01029796
:1023E00010F442E050E0A0913503B0913603FD01B6
:1023F000C0E0D0E020E030E020C0808191818417EF
:10240000950769F482819381209719F09B838A83D1
:1024100004C09093360380933503CF0132C0481730
:10242000590738F42115310519F08217930708F47C
:102430009C01EF010280F381E02D3097F1F6211528
:10244000310589F1C901841B950B049708F4A90192
:10245000E0E0F0E026C08D919C91119782179307E0
:10246000E9F44817590779F4ED018A819B81309787
:1024700019F09383828304C09093360380933503CD
:10248000CD01029649C0841B950BFD01E80FF91F91
:102490004193519302978D939C933AC0FD01A28181
:1024A000B3811097C1F68091330390913403892B47
:1024B00041F4809166029091670290933403809377
:1024C000330320916802309169022115310541F4EE
:1024D0002DB73EB78091640290916502281B390B9D
:1024E000E0913303F09134032E1B3F0B2417350783
:1024F00088F0CA0102962817390760F0CF01840FCF
:10250000951F029690933403809333034193519324
:10251000CF0102C080E090E0DF91CF910895CF938A
:10252000DF93009709F44EC0EC0122971B821A82B8
:10253000A0913503B0913603109711F140E050E0BF
:1025400001C0DC01AC17BD0700F1BB83AA83FE010B
:1025500021913191E20FF31FEA17FB0771F42E5F0F
:102560003F4F8D919C911197820F931F9983888380
:10257000FD01828193819B838A834115510559F422
:10258000D0933603C09335031DC0FD018281938132
:10259000AD010097B1F6FA01D383C2832191319145
:1025A000E20FF31FEC17FD0769F42E5F3F4F8881A0
:1025B0009981820F931FFA01918380838A819B8185
:1025C00093838283DF91CF910895DC0101C06D93E5
:1025D00041505040E0F70895FB019F01E8944230DC
:1025E000C4F04532B4F44A3029F497FB1EF49095B8
:1025F00081959F4F642F77270E943D18805D8A3315
:102600000CF0895D8193CB010097A1F716F45DE290
:1026100051931082C9010C9429160F931F93CF93E5
:10262000DF93CDB7DEB760970FB6F894DEBF0FBE6D
:10263000CDBF0F89188D86E08E831C830B838FEFAF
:102640009FE798878F83AE01455E5F4F5A8349832A
:10265000698D7A8DCE0103960E943F1329853A85B4
:10266000020F131FF801108260960FB6F894DEBFB8
:102670000FBECDBFDF91CF911F910F9108952F9283
:102680003F924F925F926F927F928F929F92AF9202
:10269000BF92CF92DF92EF92FF920F931F93CF934F
:1026A000DF93CDB7DEB764970FB6F894DEBF0FBEE9
:1026B000CDBFCC24DD2476011C017C8B6B8B2A01E1
:1026C000FC0117821682838181FD03C08FEF9FEF8B
:1026D00088C2AA24BB2472C2A0FE57C28A89805332
:1026E0008A30E8F4FA89F03341F42D85222329F465
:1026F000A3FC03C080E091E06FC08AE0ED85E802B2
:10270000C0011124FA89F80FF053FD87F7FF02C0CA
:102710002FE72D87A3FC4CC23D853E8749C2C501EA
:1027200088709070A3FE05C0ED85EE2311F4F1E0F2
:10273000FD872A89283624F525360CF05BC0233521
:1027400009F480C024358CF42B32C1F12C3234F4DE
:102750002032C1F1233209F00DC23CC03A893D322A
:10276000B1F13E3209F006C23AC08A89833609F4D3
:1027700049C084360CF081C0883509F0FBC11BC00C
:10278000EA89E03709F4A3C0E13744F4EC3669F193
:10279000EF3671F0E93609F0EDC16FC0FA89F5370F
:1027A00009F49DC0F83739F0F33709F0E3C134C0BC
:1027B00028E0298B94C030E1398B91C080E190E012
:1027C000A82AB92AE0E2F0E0AE2ABF2AF1C120E847
:1027D00030E00DC080E490E0A82AB92AE9C1E8E021
:1027E000F0E0AE2ABF2A1D86E3C124E030E0A22A31
:1027F000B32ADEC14FE3C42E3E8531503E8783E6C7
:102800008A8B44C1F201C080FE85F150FE8722E030
:1028100030E0420E531E3AC1F201C080D180892BB4
:1028200049F0FD856F2F772767FD7095C6010E94DF
:102830001E1619C0F60101900020E9F73197EC1936
:10284000E98B12C0F201C080D180892B49F0FD854F
:102850006F2F772767FD7095C6010E94131603C07E
:10286000C6010E940A16898B22E030E0420E531EF8
:102870003E858989381B3E8709C1A2FE08C0F20146
:1028800080819181A281B38124E030E009C0F2010E
:1028900080819181AA2797FDA095BA2F22E030E090
:1028A000420E531E6C017D01B7FF0CC082E090E028
:1028B000A82AB92AF094E094D094C094C11CD11CE9
:1028C000E11CF11CEFEBFFEFAE22BF2221C020E4A0
:1028D00030E0A22AB32A38E73A8B80E1898BA2FE46
:1028E00008C0F20180819181A281B38124E030E0AF
:1028F00007C0F20180819181AA27BB2722E030E046
:10290000420E531E6C017D018FEC9FEFA822B9226D
:1029100087017601FE013196F88BEF87F9896F2EDA
:10292000772488249924C801B701A40193010E9447
:1029300000186A3024F02A89620F615201C0605D7C
:10294000EF85F8896193F88BEF87C801B701A4017F
:1029500093010E94001879018A0121153105410572
:10296000510509F7CC24DD247601CE010196CF84F0
:10297000C81AC50182739070892B19F0FE85F15039
:10298000FE87A6FE09C02989203111F482E001C02A
:1029900081E03E85381B3E8738E0832E912C8A20CB
:1029A0009B20A3FE1BC08D85282F332727FD309544
:1029B0008C2D99278217930754F0E7EFFFEFAE2293
:1029C000BF2228E0822E912C8A209B2007C0FD8503
:1029D000FC19FD872E852F1B2E8703C03E853C19D1
:1029E0003E87C50180789170892B69F48E8506C079
:1029F000B10180E290E00E943916812F182F11500A
:102A00001816B4F31E87A1FE04C0B1018DE290E058
:102A10000BC0A4FE04C0B1018BE290E005C0A5FE8E
:102A200005C0B10180E290E00E943916A6FE10C0F8
:102A3000B10180E390E00E9439168989803141F428
:102A4000B101EA898E2F992787FD90950E9439164A
:102A5000B0FE0DC08E8506C0B10180E390E00E94FB
:102A60003916812F182F11501816B4F31E87892894
:102A700069F02D8506C0B10180E390E00E9439160F
:102A8000212F122F11501216B4F31D8790E8692ED2
:102A9000712C6A207B20A7FC0DC08E8506C0B10179
:102AA00080E290E00E943916812F182F11501816DD
:102AB000B4F31E87FA89F33641F4B1018C2D9927BE
:102AC00087FD90950E94391645C02A892337B1F4B5
:102AD00046015601198909C0F50181915F01B101D3
:102AE000992787FD90950E9439161150A8F7640127
:102AF000F989CF0ED11C2FEF298B2CC03A893335A1
:102B000019F00F8518891FC046018601B98808C0D1
:102B1000F8018491B10199270E9439160F5F1F4F68
:102B2000BA94FFEFBF16A1F764012989C20ED11C28
:102B3000F98B10C0F80182918F01B101992787FDAF
:102B400090950E943916CE0101960817190791F742
:102B5000188B0F876728B1F08E8506C0B10180E21F
:102B600090E00E943916812F182F11501816B4F3D7
:102B70001E8708C0B101FA898F2F992787FD90958C
:102B80000E943916AA24BB2413C02A89253241F495
:102B90003AE0398B1E861D8681E0A82EB12C08C034
:102BA000B101EA898E2F992787FD90950E943916E9
:102BB0002B893C892F5F3F4F3C8B2B8BF10183810D
:102BC00083FF04C0EB89FC89F49103C0EB89FC8985
:102BD000F081FA8B2A89222309F07ECDF1018681CA
:102BE000978164960FB6F894DEBF0FBECDBFDF911C
:102BF000CF911F910F91FF90EF90DF90CF90BF90FA
:102C0000AF909F908F907F906F905F904F903F908C
:102C10002F900895FC0105900020E9F7809590958C
:102C20008E0F9F1F0895FC010590615070400110A8
:102C3000D8F7809590958E0F9F1F0895FC016150E5
:102C4000704001900110D8F7809590958E0F9F1FCE
:102C50000895DC01FC01672F71917723E1F732972A
:102C600004C07C916D9370836291AE17BF07C8F367
:102C700008950F931F93CF93DF938C01EB018B810A
:102C8000992781FF1BC082FF0DC02E813F818C815F
:102C90009D812817390764F4E881F9810193F9834C
:102CA000E88306C0E885F985802F0995892B31F4E2
:102CB0008E819F8101969F838E8302C00FEF1FEF4D
:102CC000C801DF91CF911F910F9108955058192E8F
:102CD000EFD001D0D2C0BA176207730784079507F7
:102CE000B1F188F40EF410940B2EBA2FA02D062EFD
:102CF000622F202D072E732F302D082E842F402D6C
:102D0000092E952F502DFF275523B9F0591B49F057
:102D1000573E98F0469537952795A795F0405395DF
:102D2000C9F776F0BA0F621F731F841F30F48795BE
:102D300077956795B795F040939517FA0F2E0895FC
:102D4000BF1BBB27BA0B620B730B840BF6CFDEF6EF
:102D5000DBC0AED001D091C0552359F0992369F062
:102D60009F575F57951B33F442F4903811F49158F4
:102D700005C09BC091589F3F09F4C6C0BB271124D2
:102D800062177307840730F4660F771F881FBB1F15
:102D9000915098F311D00F920FD00F920DD0A0E860
:102DA0002617370748071B0609F0A048BA2F602DE1
:102DB0007F918F9100240895A0E800246217730783
:102DC0008407B10528F0621B730B840BB1090A2A32
:102DD000660F771F881FBB1FA69581F7089597FB85
:102DE00073D09F3738F0FEE9F91B982F872F762F85
:102DF0006B2F05C086C09695879577956795F1509E
:102E0000D0F73EF490958095709561957F4F8F4FE8
:102E10009F4F0895E89403C097FB0EF4F3DFB62F9D
:102E2000672F782F892F9EE9002427C00ED05EF0EF
:102E300004C00BD026F001C008D019F020F48FEFA9
:102E4000089580E0089581E0089597FB092E0526F6
:102E500000F8689430D0E89407FC07C06217730745
:102E60008407950721F008F4009407949894089536
:102E70009A95BB0F661F771F881F11249923A1F015
:102E80008823B2F79F3F59F0BB0F48F421F400208C
:102E900011F460FF04C06F5F7F4F8F4F9F4F881FFB
:102EA0009795879597F908952CC09FEF80EC08952A
:102EB000052E092607FA440F551F5F3F79F0AA2710
:102EC000A51708F051E04795880F991F9F3F31F0F3
:102ED000BB27B91708F091E0879508959F919F91BE
:102EE0001124E3CF97FB880F991F9F3F31F0BB2739
:102EF000B91708F091E0879508959F919F9111244B
:102F0000D4CF66277727882799270895D1DF01D066
:102F1000B4CF992339F0552329F09F575F57950F68
:102F200013F49AF1F1CF91589F3FE1F3629FA12DE5
:102F30000F92BB27639FA00DB11DEE27729FA00DBE
:102F4000B11DEE1FAF93AA27649FB00DE11D739FC3
:102F5000B00DE11DAA1F6627829FB00DE11DA61FBF
:102F60005527749FE00DA11D551F839FE00DA11DE6
:102F7000561F849FA00D511D852F7A2F6E2F1F90F5
:102F80000F9088231AF4939539F48FCF000C111CFD
:102F9000BB1F661F771F881F01280895629FD001FD
:102FA000739FF001829FE00DF11D649FE00DF11D04
:102FB000929FF00D839FF00D749FF00D659FF00DB3
:102FC0009927729FB00DE11DF91F639FB00DE11DA0
:102FD000F91FBD01CF011124089597FB092E072683
:102FE0000AD077FD04D049D006D000201AF470959D
:102FF00061957F4F0895F6F7909581959F4F0895BD
:10300000A1E21A2EAA1BBB1BFD010DC0AA1FBB1FEC
:10301000EE1FFF1FA217B307E407F50720F0A21B5E
:10302000B30BE40BF50B661F771F881F991F1A94CB
:1030300069F760957095809590959B01AC01BD01F5
:10304000CF01089597FB092E05260ED057FD04D019
:10305000D7DF0AD0001C38F4509540953095219563
:103060003F4F4F4F5F4F0895F6F7909580957095BD
:1030700061957F4F8F4F9F4F0895AA1BBB1B51E156
:1030800007C0AA1FBB1FA617B70710F0A61BB70BD8
:10309000881F991F5A95A9F780959095BC01CD017D
:1030A0000895EE0FFF1F0590F491E02D0994F99912
:1030B000FECFB2BDA1BDF89A119600B40895F9995A
:1030C000FECFB2BDA1BD00BC11960FB6F894FA9A1E
:0830D000F99A0FBE0895FFCF2D
:1030D8003F783036003F7931003F7933003F783010
:1030E80037003F7930003F7932003F783130003F78
:1030F8007831320020003F36003F32003F35006D06
:1031080069006B6D003F783030004469737431207A
:1031180020202020202020202054696D650044694B
:1031280073743120202020202020204176672E53E0
:1031380070003F33003F340044697374322020200C
:103148002020202020202054696D65004469737474
:103158003220202020202020204176672E53700026
:103168003F44313034304531353034303430343008
:10317800343034003F44323034303430343034303A
:1031880034313530453034003F4433314231313009
:103198004131423142314231423142003F443431BF
:1031A80042314231423142314230413131314200C3
:1031B8003F443530383034303231463146303230A1
:1031C800343038003F4436303230343038314631CC
:1031D80046303830343032003F66003F78313300B3
:1031E8003F3E34003F6332006E65775F63616C5F1A
:1031F80031006E65775F63616C5F32006E65775F83
:1032080063616C5F33006E65775F63616C5F340088
:103218003F6333003F3C002531643A253032643A3D
:1032280025303264003F78313400B10101010101D9
:0A323800010101002000370300002F
:00000001FF
